{
  "contractName": "TestContract",
  "abi": [
    {
      "anonymous": false,
      "inputs": [
        {
          "indexed": false,
          "internalType": "address",
          "name": "previousAdmin",
          "type": "address"
        },
        {
          "indexed": false,
          "internalType": "address",
          "name": "newAdmin",
          "type": "address"
        }
      ],
      "name": "AdminChanged",
      "type": "event"
    },
    {
      "anonymous": false,
      "inputs": [
        {
          "indexed": true,
          "internalType": "address",
          "name": "account",
          "type": "address"
        },
        {
          "indexed": true,
          "internalType": "address",
          "name": "operator",
          "type": "address"
        },
        {
          "indexed": false,
          "internalType": "bool",
          "name": "approved",
          "type": "bool"
        }
      ],
      "name": "ApprovalForAll",
      "type": "event"
    },
    {
      "anonymous": false,
      "inputs": [
        {
          "indexed": true,
          "internalType": "address",
          "name": "beacon",
          "type": "address"
        }
      ],
      "name": "BeaconUpgraded",
      "type": "event"
    },
    {
      "anonymous": false,
      "inputs": [
        {
          "indexed": false,
          "internalType": "uint8",
          "name": "version",
          "type": "uint8"
        }
      ],
      "name": "Initialized",
      "type": "event"
    },
    {
      "anonymous": false,
      "inputs": [
        {
          "indexed": true,
          "internalType": "address",
          "name": "previousOwner",
          "type": "address"
        },
        {
          "indexed": true,
          "internalType": "address",
          "name": "newOwner",
          "type": "address"
        }
      ],
      "name": "OwnershipTransferred",
      "type": "event"
    },
    {
      "anonymous": false,
      "inputs": [
        {
          "indexed": false,
          "internalType": "address",
          "name": "account",
          "type": "address"
        }
      ],
      "name": "Paused",
      "type": "event"
    },
    {
      "anonymous": false,
      "inputs": [
        {
          "indexed": true,
          "internalType": "address",
          "name": "operator",
          "type": "address"
        },
        {
          "indexed": true,
          "internalType": "address",
          "name": "from",
          "type": "address"
        },
        {
          "indexed": true,
          "internalType": "address",
          "name": "to",
          "type": "address"
        },
        {
          "indexed": false,
          "internalType": "uint256[]",
          "name": "ids",
          "type": "uint256[]"
        },
        {
          "indexed": false,
          "internalType": "uint256[]",
          "name": "values",
          "type": "uint256[]"
        }
      ],
      "name": "TransferBatch",
      "type": "event"
    },
    {
      "anonymous": false,
      "inputs": [
        {
          "indexed": true,
          "internalType": "address",
          "name": "operator",
          "type": "address"
        },
        {
          "indexed": true,
          "internalType": "address",
          "name": "from",
          "type": "address"
        },
        {
          "indexed": true,
          "internalType": "address",
          "name": "to",
          "type": "address"
        },
        {
          "indexed": false,
          "internalType": "uint256",
          "name": "id",
          "type": "uint256"
        },
        {
          "indexed": false,
          "internalType": "uint256",
          "name": "value",
          "type": "uint256"
        }
      ],
      "name": "TransferSingle",
      "type": "event"
    },
    {
      "anonymous": false,
      "inputs": [
        {
          "indexed": false,
          "internalType": "string",
          "name": "value",
          "type": "string"
        },
        {
          "indexed": true,
          "internalType": "uint256",
          "name": "id",
          "type": "uint256"
        }
      ],
      "name": "URI",
      "type": "event"
    },
    {
      "anonymous": false,
      "inputs": [
        {
          "indexed": false,
          "internalType": "address",
          "name": "account",
          "type": "address"
        }
      ],
      "name": "Unpaused",
      "type": "event"
    },
    {
      "anonymous": false,
      "inputs": [
        {
          "indexed": true,
          "internalType": "address",
          "name": "implementation",
          "type": "address"
        }
      ],
      "name": "Upgraded",
      "type": "event"
    },
    {
      "inputs": [
        {
          "internalType": "address",
          "name": "account",
          "type": "address"
        },
        {
          "internalType": "uint256",
          "name": "id",
          "type": "uint256"
        }
      ],
      "name": "balanceOf",
      "outputs": [
        {
          "internalType": "uint256",
          "name": "",
          "type": "uint256"
        }
      ],
      "stateMutability": "view",
      "type": "function",
      "constant": true
    },
    {
      "inputs": [
        {
          "internalType": "address[]",
          "name": "accounts",
          "type": "address[]"
        },
        {
          "internalType": "uint256[]",
          "name": "ids",
          "type": "uint256[]"
        }
      ],
      "name": "balanceOfBatch",
      "outputs": [
        {
          "internalType": "uint256[]",
          "name": "",
          "type": "uint256[]"
        }
      ],
      "stateMutability": "view",
      "type": "function",
      "constant": true
    },
    {
      "inputs": [
        {
          "internalType": "address",
          "name": "account",
          "type": "address"
        },
        {
          "internalType": "uint256",
          "name": "id",
          "type": "uint256"
        },
        {
          "internalType": "uint256",
          "name": "value",
          "type": "uint256"
        }
      ],
      "name": "burn",
      "outputs": [],
      "stateMutability": "nonpayable",
      "type": "function"
    },
    {
      "inputs": [
        {
          "internalType": "address",
          "name": "account",
          "type": "address"
        },
        {
          "internalType": "uint256[]",
          "name": "ids",
          "type": "uint256[]"
        },
        {
          "internalType": "uint256[]",
          "name": "values",
          "type": "uint256[]"
        }
      ],
      "name": "burnBatch",
      "outputs": [],
      "stateMutability": "nonpayable",
      "type": "function"
    },
    {
      "inputs": [
        {
          "internalType": "uint256",
          "name": "",
          "type": "uint256"
        }
      ],
      "name": "eventStore",
      "outputs": [
        {
          "internalType": "string",
          "name": "",
          "type": "string"
        }
      ],
      "stateMutability": "view",
      "type": "function",
      "constant": true
    },
    {
      "inputs": [
        {
          "internalType": "uint256",
          "name": "id",
          "type": "uint256"
        }
      ],
      "name": "exists",
      "outputs": [
        {
          "internalType": "bool",
          "name": "",
          "type": "bool"
        }
      ],
      "stateMutability": "view",
      "type": "function",
      "constant": true
    },
    {
      "inputs": [
        {
          "internalType": "address",
          "name": "account",
          "type": "address"
        },
        {
          "internalType": "address",
          "name": "operator",
          "type": "address"
        }
      ],
      "name": "isApprovedForAll",
      "outputs": [
        {
          "internalType": "bool",
          "name": "",
          "type": "bool"
        }
      ],
      "stateMutability": "view",
      "type": "function",
      "constant": true
    },
    {
      "inputs": [],
      "name": "owner",
      "outputs": [
        {
          "internalType": "address",
          "name": "",
          "type": "address"
        }
      ],
      "stateMutability": "view",
      "type": "function",
      "constant": true
    },
    {
      "inputs": [],
      "name": "paused",
      "outputs": [
        {
          "internalType": "bool",
          "name": "",
          "type": "bool"
        }
      ],
      "stateMutability": "view",
      "type": "function",
      "constant": true
    },
    {
      "inputs": [],
      "name": "proxiableUUID",
      "outputs": [
        {
          "internalType": "bytes32",
          "name": "",
          "type": "bytes32"
        }
      ],
      "stateMutability": "view",
      "type": "function",
      "constant": true
    },
    {
      "inputs": [],
      "name": "renounceOwnership",
      "outputs": [],
      "stateMutability": "nonpayable",
      "type": "function"
    },
    {
      "inputs": [
        {
          "internalType": "address",
          "name": "from",
          "type": "address"
        },
        {
          "internalType": "address",
          "name": "to",
          "type": "address"
        },
        {
          "internalType": "uint256[]",
          "name": "ids",
          "type": "uint256[]"
        },
        {
          "internalType": "uint256[]",
          "name": "amounts",
          "type": "uint256[]"
        },
        {
          "internalType": "bytes",
          "name": "data",
          "type": "bytes"
        }
      ],
      "name": "safeBatchTransferFrom",
      "outputs": [],
      "stateMutability": "nonpayable",
      "type": "function"
    },
    {
      "inputs": [
        {
          "internalType": "address",
          "name": "from",
          "type": "address"
        },
        {
          "internalType": "address",
          "name": "to",
          "type": "address"
        },
        {
          "internalType": "uint256",
          "name": "id",
          "type": "uint256"
        },
        {
          "internalType": "uint256",
          "name": "amount",
          "type": "uint256"
        },
        {
          "internalType": "bytes",
          "name": "data",
          "type": "bytes"
        }
      ],
      "name": "safeTransferFrom",
      "outputs": [],
      "stateMutability": "nonpayable",
      "type": "function"
    },
    {
      "inputs": [
        {
          "internalType": "address",
          "name": "operator",
          "type": "address"
        },
        {
          "internalType": "bool",
          "name": "approved",
          "type": "bool"
        }
      ],
      "name": "setApprovalForAll",
      "outputs": [],
      "stateMutability": "nonpayable",
      "type": "function"
    },
    {
      "inputs": [
        {
          "internalType": "bytes4",
          "name": "interfaceId",
          "type": "bytes4"
        }
      ],
      "name": "supportsInterface",
      "outputs": [
        {
          "internalType": "bool",
          "name": "",
          "type": "bool"
        }
      ],
      "stateMutability": "view",
      "type": "function",
      "constant": true
    },
    {
      "inputs": [
        {
          "internalType": "uint256",
          "name": "id",
          "type": "uint256"
        }
      ],
      "name": "totalSupply",
      "outputs": [
        {
          "internalType": "uint256",
          "name": "",
          "type": "uint256"
        }
      ],
      "stateMutability": "view",
      "type": "function",
      "constant": true
    },
    {
      "inputs": [
        {
          "internalType": "address",
          "name": "newOwner",
          "type": "address"
        }
      ],
      "name": "transferOwnership",
      "outputs": [],
      "stateMutability": "nonpayable",
      "type": "function"
    },
    {
      "inputs": [
        {
          "internalType": "address",
          "name": "newImplementation",
          "type": "address"
        }
      ],
      "name": "upgradeTo",
      "outputs": [],
      "stateMutability": "nonpayable",
      "type": "function"
    },
    {
      "inputs": [
        {
          "internalType": "address",
          "name": "newImplementation",
          "type": "address"
        },
        {
          "internalType": "bytes",
          "name": "data",
          "type": "bytes"
        }
      ],
      "name": "upgradeToAndCall",
      "outputs": [],
      "stateMutability": "payable",
      "type": "function",
      "payable": true
    },
    {
      "inputs": [
        {
          "internalType": "uint256",
          "name": "",
          "type": "uint256"
        }
      ],
      "name": "uri",
      "outputs": [
        {
          "internalType": "string",
          "name": "",
          "type": "string"
        }
      ],
      "stateMutability": "view",
      "type": "function",
      "constant": true
    },
    {
      "inputs": [],
      "name": "initialize",
      "outputs": [],
      "stateMutability": "nonpayable",
      "type": "function"
    },
    {
      "inputs": [
        {
          "internalType": "string",
          "name": "newuri",
          "type": "string"
        }
      ],
      "name": "setURI",
      "outputs": [],
      "stateMutability": "nonpayable",
      "type": "function"
    },
    {
      "inputs": [],
      "name": "pause",
      "outputs": [],
      "stateMutability": "nonpayable",
      "type": "function"
    },
    {
      "inputs": [],
      "name": "unpause",
      "outputs": [],
      "stateMutability": "nonpayable",
      "type": "function"
    },
    {
      "inputs": [
        {
          "internalType": "string",
          "name": "eventName",
          "type": "string"
        },
        {
          "internalType": "address",
          "name": "attendee",
          "type": "address"
        },
        {
          "internalType": "string",
          "name": "eventData",
          "type": "string"
        }
      ],
      "name": "mintEventBadgeAndTransfer",
      "outputs": [],
      "stateMutability": "nonpayable",
      "type": "function"
    },
    {
      "inputs": [
        {
          "internalType": "string[]",
          "name": "events",
          "type": "string[]"
        }
      ],
      "name": "addNewEvents",
      "outputs": [],
      "stateMutability": "nonpayable",
      "type": "function"
    },
    {
      "inputs": [],
      "name": "getAllEvents",
      "outputs": [
        {
          "internalType": "string[]",
          "name": "",
          "type": "string[]"
        }
      ],
      "stateMutability": "view",
      "type": "function",
      "constant": true
    },
    {
      "inputs": [
        {
          "internalType": "string",
          "name": "eventName",
          "type": "string"
        },
        {
          "internalType": "address",
          "name": "account",
          "type": "address"
        }
      ],
      "name": "balanceOfEventBadgeToken",
      "outputs": [
        {
          "internalType": "uint256",
          "name": "",
          "type": "uint256"
        }
      ],
      "stateMutability": "view",
      "type": "function",
      "constant": true
    }
  ],
  "bytecode": "0x60a06040523073ffffffffffffffffffffffffffffffffffffffff1660809073ffffffffffffffffffffffffffffffffffffffff1681525034801561004357600080fd5b506080516161ad6200007c60003960008181610a2601528181610ab501528181610f1301528181610fa2015261106601526161ad6000f3fe6080604052600436106101d3576000357c010000000000000000000000000000000000000000000000000000000090048063715018a611610109578063c27a500d116100a7578063f242432a11610081578063f242432a14610617578063f2fde38b14610640578063f5298aca14610669578063fd25fede14610692576101d3565b8063c27a500d14610572578063e09374ec1461059d578063e985e9c5146105da576101d3565b80638da5cb5b116100e35780638da5cb5b146104a457806391949d4e146104cf578063a22cb4651461050c578063bd85b03914610535576101d3565b8063715018a61461045f5780638129fc1c146104765780638456cb591461048d576101d3565b806340758d04116101765780634f558e79116101505780634f558e79146103a357806352d1902d146103e05780635c975abb1461040b5780636b20c45414610436576101d3565b806340758d04146103215780634e1273f41461034a5780634f1ef28614610387576101d3565b80630e89341c116101b25780630e89341c1461027b5780632eb2c2d6146102b85780633659cfe6146102e15780633f4ba83a1461030a576101d3565b8062fdd58e146101d857806301ffc9a71461021557806302fe530514610252575b600080fd5b3480156101e457600080fd5b506101ff60048036038101906101fa9190613cc2565b6106bb565b60405161020c9190613d11565b60405180910390f35b34801561022157600080fd5b5061023c60048036038101906102379190613d84565b610785565b6040516102499190613dcc565b60405180910390f35b34801561025e57600080fd5b5061027960048036038101906102749190613f2d565b610867565b005b34801561028757600080fd5b506102a2600480360381019061029d9190613f76565b6108ef565b6040516102af919061402b565b60405180910390f35b3480156102c457600080fd5b506102df60048036038101906102da91906141b6565b610983565b005b3480156102ed57600080fd5b5061030860048036038101906103039190614285565b610a24565b005b34801561031657600080fd5b5061031f610bad565b005b34801561032d57600080fd5b5061034860048036038101906103439190614393565b610c33565b005b34801561035657600080fd5b50610371600480360381019061036c919061449f565b610df8565b60405161037e91906145d5565b60405180910390f35b6103a1600480360381019061039c91906145f7565b610f11565b005b3480156103af57600080fd5b506103ca60048036038101906103c59190613f76565b61104e565b6040516103d79190613dcc565b60405180910390f35b3480156103ec57600080fd5b506103f5611062565b604051610402919061466c565b60405180910390f35b34801561041757600080fd5b5061042061111b565b60405161042d9190613dcc565b60405180910390f35b34801561044257600080fd5b5061045d60048036038101906104589190614687565b611132565b005b34801561046b57600080fd5b506104746111cf565b005b34801561048257600080fd5b5061048b611257565b005b34801561049957600080fd5b506104a2611323565b005b3480156104b057600080fd5b506104b96113a9565b6040516104c69190614721565b60405180910390f35b3480156104db57600080fd5b506104f660048036038101906104f19190614797565b6113d3565b6040516105039190613d11565b60405180910390f35b34801561051857600080fd5b50610533600480360381019061052e9190614823565b61147e565b005b34801561054157600080fd5b5061055c60048036038101906105579190613f76565b611494565b6040516105699190613d11565b60405180910390f35b34801561057e57600080fd5b506105876114b2565b604051610594919061496f565b60405180910390f35b3480156105a957600080fd5b506105c460048036038101906105bf9190613f76565b61158c565b6040516105d1919061402b565b60405180910390f35b3480156105e657600080fd5b5061060160048036038101906105fc9190614991565b611639565b60405161060e9190613dcc565b60405180910390f35b34801561062357600080fd5b5061063e600480360381019061063991906149d1565b6116cd565b005b34801561064c57600080fd5b5061066760048036038101906106629190614285565b61176e565b005b34801561067557600080fd5b50610690600480360381019061068b9190614a68565b611866565b005b34801561069e57600080fd5b506106b960048036038101906106b49190614abb565b611903565b005b60008073ffffffffffffffffffffffffffffffffffffffff168373ffffffffffffffffffffffffffffffffffffffff16141561072c576040517f08c379a000000000000000000000000000000000000000000000000000000000815260040161072390614bc2565b60405180910390fd5b6065600083815260200190815260200160002060008473ffffffffffffffffffffffffffffffffffffffff1673ffffffffffffffffffffffffffffffffffffffff16815260200190815260200160002054905092915050565b60007fd9b67a26000000000000000000000000000000000000000000000000000000007bffffffffffffffffffffffffffffffffffffffffffffffffffffffff1916827bffffffffffffffffffffffffffffffffffffffffffffffffffffffff1916148061085057507f0e89341c000000000000000000000000000000000000000000000000000000007bffffffffffffffffffffffffffffffffffffffffffffffffffffffff1916827bffffffffffffffffffffffffffffffffffffffffffffffffffffffff1916145b80610860575061085f82611ad8565b5b9050919050565b61086f611b42565b73ffffffffffffffffffffffffffffffffffffffff1661088d6113a9565b73ffffffffffffffffffffffffffffffffffffffff16146108e3576040517f08c379a00000000000000000000000000000000000000000000000000000000081526004016108da90614c2e565b60405180910390fd5b6108ec81611b4a565b50565b6060606780546108fe90614c7d565b80601f016020809104026020016040519081016040528092919081815260200182805461092a90614c7d565b80156109775780601f1061094c57610100808354040283529160200191610977565b820191906000526020600020905b81548152906001019060200180831161095a57829003601f168201915b50505050509050919050565b61098b611b42565b73ffffffffffffffffffffffffffffffffffffffff168573ffffffffffffffffffffffffffffffffffffffff1614806109d157506109d0856109cb611b42565b611639565b5b610a10576040517f08c379a0000000000000000000000000000000000000000000000000000000008152600401610a0790614d21565b60405180910390fd5b610a1d8585858585611b64565b5050505050565b7f000000000000000000000000000000000000000000000000000000000000000073ffffffffffffffffffffffffffffffffffffffff163073ffffffffffffffffffffffffffffffffffffffff161415610ab3576040517f08c379a0000000000000000000000000000000000000000000000000000000008152600401610aaa90614db3565b60405180910390fd5b7f000000000000000000000000000000000000000000000000000000000000000073ffffffffffffffffffffffffffffffffffffffff16610af2611e89565b73ffffffffffffffffffffffffffffffffffffffff1614610b48576040517f08c379a0000000000000000000000000000000000000000000000000000000008152600401610b3f90614e45565b60405180910390fd5b610b5181611ee0565b610baa81600067ffffffffffffffff811115610b7057610b6f613e02565b5b6040519080825280601f01601f191660200182016040528015610ba25781602001600182028036833780820191505090505b506000611f5f565b50565b610bb5611b42565b73ffffffffffffffffffffffffffffffffffffffff16610bd36113a9565b73ffffffffffffffffffffffffffffffffffffffff1614610c29576040517f08c379a0000000000000000000000000000000000000000000000000000000008152600401610c2090614c2e565b60405180910390fd5b610c316120e9565b565b610c3b611b42565b73ffffffffffffffffffffffffffffffffffffffff16610c596113a9565b73ffffffffffffffffffffffffffffffffffffffff1614610caf576040517f08c379a0000000000000000000000000000000000000000000000000000000008152600401610ca690614c2e565b60405180910390fd5b60005b8151811015610df45760006101c3838381518110610cd357610cd2614e65565b5b6020026020010151604051610ce89190614ed0565b90815260200160405180910390205414610d37576040517f08c379a0000000000000000000000000000000000000000000000000000000008152600401610d2e90614f33565b60405180910390fd5b6101c460008154610d4790614f82565b9190508190556101c3838381518110610d6357610d62614e65565b5b6020026020010151604051610d789190614ed0565b9081526020016040518091039020819055506101c5828281518110610da057610d9f614e65565b5b6020026020010151908060018154018082558091505060019003906000526020600020016000909190919091509080519060200190610de0929190613b77565b508080610dec90614f82565b915050610cb2565b5050565b60608151835114610e3e576040517f08c379a0000000000000000000000000000000000000000000000000000000008152600401610e359061503d565b60405180910390fd5b6000835167ffffffffffffffff811115610e5b57610e5a613e02565b5b604051908082528060200260200182016040528015610e895781602001602082028036833780820191505090505b50905060005b8451811015610f0657610ed6858281518110610eae57610ead614e65565b5b6020026020010151858381518110610ec957610ec8614e65565b5b60200260200101516106bb565b828281518110610ee957610ee8614e65565b5b60200260200101818152505080610eff90614f82565b9050610e8f565b508091505092915050565b7f000000000000000000000000000000000000000000000000000000000000000073ffffffffffffffffffffffffffffffffffffffff163073ffffffffffffffffffffffffffffffffffffffff161415610fa0576040517f08c379a0000000000000000000000000000000000000000000000000000000008152600401610f9790614db3565b60405180910390fd5b7f000000000000000000000000000000000000000000000000000000000000000073ffffffffffffffffffffffffffffffffffffffff16610fdf611e89565b73ffffffffffffffffffffffffffffffffffffffff1614611035576040517f08c379a000000000000000000000000000000000000000000000000000000000815260040161102c90614e45565b60405180910390fd5b61103e82611ee0565b61104a82826001611f5f565b5050565b60008061105a83611494565b119050919050565b60007f000000000000000000000000000000000000000000000000000000000000000073ffffffffffffffffffffffffffffffffffffffff163073ffffffffffffffffffffffffffffffffffffffff16146110f2576040517f08c379a00000000000000000000000000000000000000000000000000000000081526004016110e9906150cf565b60405180910390fd5b7f360894a13ba1a3210667c828492db98dca3e2076cc3735a920a3ca505d382bbc600102905090565b600060c960009054906101000a900460ff16905090565b61113a611b42565b73ffffffffffffffffffffffffffffffffffffffff168373ffffffffffffffffffffffffffffffffffffffff161480611180575061117f8361117a611b42565b611639565b5b6111bf576040517f08c379a00000000000000000000000000000000000000000000000000000000081526004016111b690615161565b60405180910390fd5b6111ca83838361218b565b505050565b6111d7611b42565b73ffffffffffffffffffffffffffffffffffffffff166111f56113a9565b73ffffffffffffffffffffffffffffffffffffffff161461124b576040517f08c379a000000000000000000000000000000000000000000000000000000000815260040161124290614c2e565b60405180910390fd5b611255600061245c565b565b60006112636001612522565b90508015611287576001600060016101000a81548160ff0219169083151502179055505b61129f60405180602001604052806000815250612612565b6112a761266d565b6112af6126c6565b6112b761271f565b6112bf612770565b6112c76127c1565b80156113205760008060016101000a81548160ff0219169083151502179055507f7f26b83ff96e1f2b6a682f133852f6798a09c465da95921460cefb3847402498600160405161131791906151d3565b60405180910390a15b50565b61132b611b42565b73ffffffffffffffffffffffffffffffffffffffff166113496113a9565b73ffffffffffffffffffffffffffffffffffffffff161461139f576040517f08c379a000000000000000000000000000000000000000000000000000000000815260040161139690614c2e565b60405180910390fd5b6113a7612812565b565b6000609760009054906101000a900473ffffffffffffffffffffffffffffffffffffffff16905090565b60008073ffffffffffffffffffffffffffffffffffffffff168273ffffffffffffffffffffffffffffffffffffffff161415611444576040517f08c379a000000000000000000000000000000000000000000000000000000000815260040161143b9061523a565b60405180910390fd5b60006101c3858560405161145992919061527f565b908152602001604051809103902054905061147483826106bb565b9150509392505050565b611490611489611b42565b83836128b5565b5050565b600061012d6000838152602001908152602001600020549050919050565b60606101c5805480602002602001604051908101604052809291908181526020016000905b828210156115835783829060005260206000200180546114f690614c7d565b80601f016020809104026020016040519081016040528092919081815260200182805461152290614c7d565b801561156f5780601f106115445761010080835404028352916020019161156f565b820191906000526020600020905b81548152906001019060200180831161155257829003601f168201915b5050505050815260200190600101906114d7565b50505050905090565b6101c5818154811061159d57600080fd5b9060005260206000200160009150905080546115b890614c7d565b80601f01602080910402602001604051908101604052809291908181526020018280546115e490614c7d565b80156116315780601f1061160657610100808354040283529160200191611631565b820191906000526020600020905b81548152906001019060200180831161161457829003601f168201915b505050505081565b6000606660008473ffffffffffffffffffffffffffffffffffffffff1673ffffffffffffffffffffffffffffffffffffffff16815260200190815260200160002060008373ffffffffffffffffffffffffffffffffffffffff1673ffffffffffffffffffffffffffffffffffffffff16815260200190815260200160002060009054906101000a900460ff16905092915050565b6116d5611b42565b73ffffffffffffffffffffffffffffffffffffffff168573ffffffffffffffffffffffffffffffffffffffff16148061171b575061171a85611715611b42565b611639565b5b61175a576040517f08c379a000000000000000000000000000000000000000000000000000000000815260040161175190615161565b60405180910390fd5b6117678585858585612a22565b5050505050565b611776611b42565b73ffffffffffffffffffffffffffffffffffffffff166117946113a9565b73ffffffffffffffffffffffffffffffffffffffff16146117ea576040517f08c379a00000000000000000000000000000000000000000000000000000000081526004016117e190614c2e565b60405180910390fd5b600073ffffffffffffffffffffffffffffffffffffffff168173ffffffffffffffffffffffffffffffffffffffff16141561185a576040517f08c379a00000000000000000000000000000000000000000000000000000000081526004016118519061530a565b60405180910390fd5b6118638161245c565b50565b61186e611b42565b73ffffffffffffffffffffffffffffffffffffffff168373ffffffffffffffffffffffffffffffffffffffff1614806118b457506118b3836118ae611b42565b611639565b5b6118f3576040517f08c379a00000000000000000000000000000000000000000000000000000000081526004016118ea90615161565b60405180910390fd5b6118fe838383612cc1565b505050565b61190b611b42565b73ffffffffffffffffffffffffffffffffffffffff166119296113a9565b73ffffffffffffffffffffffffffffffffffffffff161461197f576040517f08c379a000000000000000000000000000000000000000000000000000000000815260040161197690614c2e565b60405180910390fd5b600073ffffffffffffffffffffffffffffffffffffffff168373ffffffffffffffffffffffffffffffffffffffff1614156119ef576040517f08c379a00000000000000000000000000000000000000000000000000000000081526004016119e69061539c565b60405180910390fd5b60006101c38686604051611a0492919061527f565b90815260200160405180910390205411611a53576040517f08c379a0000000000000000000000000000000000000000000000000000000008152600401611a4a9061542e565b60405180910390fd5b60006101c38686604051611a6892919061527f565b9081526020016040518091039020549050600083838080601f016020809104026020016040519081016040528093929190818152602001838380828437600081840152601f19601f820116905080830192505050505050509050611acf8583600184612f0a565b50505050505050565b60007f01ffc9a7000000000000000000000000000000000000000000000000000000007bffffffffffffffffffffffffffffffffffffffffffffffffffffffff1916827bffffffffffffffffffffffffffffffffffffffffffffffffffffffff1916149050919050565b600033905090565b8060679080519060200190611b60929190613b77565b5050565b8151835114611ba8576040517f08c379a0000000000000000000000000000000000000000000000000000000008152600401611b9f906154c0565b60405180910390fd5b600073ffffffffffffffffffffffffffffffffffffffff168473ffffffffffffffffffffffffffffffffffffffff161415611c18576040517f08c379a0000000000000000000000000000000000000000000000000000000008152600401611c0f90615552565b60405180910390fd5b6000611c22611b42565b9050611c328187878787876130bc565b60005b8451811015611de6576000858281518110611c5357611c52614e65565b5b602002602001015190506000858381518110611c7257611c71614e65565b5b6020026020010151905060006065600084815260200190815260200160002060008b73ffffffffffffffffffffffffffffffffffffffff1673ffffffffffffffffffffffffffffffffffffffff16815260200190815260200160002054905081811015611d14576040517f08c379a0000000000000000000000000000000000000000000000000000000008152600401611d0b906155e4565b60405180910390fd5b8181036065600085815260200190815260200160002060008c73ffffffffffffffffffffffffffffffffffffffff1673ffffffffffffffffffffffffffffffffffffffff16815260200190815260200160002081905550816065600085815260200190815260200160002060008b73ffffffffffffffffffffffffffffffffffffffff1673ffffffffffffffffffffffffffffffffffffffff1681526020019081526020016000206000828254611dcb9190615604565b9250508190555050505080611ddf90614f82565b9050611c35565b508473ffffffffffffffffffffffffffffffffffffffff168673ffffffffffffffffffffffffffffffffffffffff168273ffffffffffffffffffffffffffffffffffffffff167f4a39dc06d4c0dbc64b70af90fd698a233a518aa5d07e595d983b8c0526c8f7fb8787604051611e5d92919061565a565b60405180910390a4611e7381878787878761311a565b611e81818787878787613122565b505050505050565b6000611eb77f360894a13ba1a3210667c828492db98dca3e2076cc3735a920a3ca505d382bbc600102613332565b60000160009054906101000a900473ffffffffffffffffffffffffffffffffffffffff16905090565b611ee8611b42565b73ffffffffffffffffffffffffffffffffffffffff16611f066113a9565b73ffffffffffffffffffffffffffffffffffffffff1614611f5c576040517f08c379a0000000000000000000000000000000000000000000000000000000008152600401611f5390614c2e565b60405180910390fd5b50565b611f8b7f4910fdfa16fed3260ed0e7147f7cc6da11a60208b5b9406d12a635614ffd914360010261333c565b60000160009054906101000a900460ff1615611faf57611faa83613346565b6120e4565b8273ffffffffffffffffffffffffffffffffffffffff166352d1902d6040518163ffffffff167c0100000000000000000000000000000000000000000000000000000000028152600401602060405180830381865afa92505050801561203357506040513d601f19601f8201168201806040525081019061203091906156bd565b60015b612072576040517f08c379a00000000000000000000000000000000000000000000000000000000081526004016120699061575c565b60405180910390fd5b7f360894a13ba1a3210667c828492db98dca3e2076cc3735a920a3ca505d382bbc60010281146120d7576040517f08c379a00000000000000000000000000000000000000000000000000000000081526004016120ce906157ee565b60405180910390fd5b506120e38383836133ff565b5b505050565b6120f161111b565b612130576040517f08c379a00000000000000000000000000000000000000000000000000000000081526004016121279061585a565b60405180910390fd5b600060c960006101000a81548160ff0219169083151502179055507f5db9ee0a495bf2e6ff9c91a7834c1ba4fdd244a5e8aa4e537bd38aeae4b073aa612174611b42565b6040516121819190614721565b60405180910390a1565b600073ffffffffffffffffffffffffffffffffffffffff168373ffffffffffffffffffffffffffffffffffffffff1614156121fb576040517f08c379a00000000000000000000000000000000000000000000000000000000081526004016121f2906158ec565b60405180910390fd5b805182511461223f576040517f08c379a0000000000000000000000000000000000000000000000000000000008152600401612236906154c0565b60405180910390fd5b6000612249611b42565b9050612269818560008686604051806020016040528060008152506130bc565b60005b83518110156123b857600084828151811061228a57612289614e65565b5b6020026020010151905060008483815181106122a9576122a8614e65565b5b6020026020010151905060006065600084815260200190815260200160002060008973ffffffffffffffffffffffffffffffffffffffff1673ffffffffffffffffffffffffffffffffffffffff1681526020019081526020016000205490508181101561234b576040517f08c379a00000000000000000000000000000000000000000000000000000000081526004016123429061597e565b60405180910390fd5b8181036065600085815260200190815260200160002060008a73ffffffffffffffffffffffffffffffffffffffff1673ffffffffffffffffffffffffffffffffffffffff1681526020019081526020016000208190555050505080806123b090614f82565b91505061226c565b50600073ffffffffffffffffffffffffffffffffffffffff168473ffffffffffffffffffffffffffffffffffffffff168273ffffffffffffffffffffffffffffffffffffffff167f4a39dc06d4c0dbc64b70af90fd698a233a518aa5d07e595d983b8c0526c8f7fb868660405161243092919061565a565b60405180910390a46124568185600086866040518060200160405280600081525061311a565b50505050565b6000609760009054906101000a900473ffffffffffffffffffffffffffffffffffffffff16905081609760006101000a81548173ffffffffffffffffffffffffffffffffffffffff021916908373ffffffffffffffffffffffffffffffffffffffff1602179055508173ffffffffffffffffffffffffffffffffffffffff168173ffffffffffffffffffffffffffffffffffffffff167f8be0079c531659141344cd1fd0a4f28419497f9722a3daafe3b4186f6b6457e060405160405180910390a35050565b60008060019054906101000a900460ff16156125995760018260ff16148015612551575061254f3061342b565b155b612590576040517f08c379a000000000000000000000000000000000000000000000000000000000815260040161258790615a10565b60405180910390fd5b6000905061260d565b8160ff1660008054906101000a900460ff1660ff16106125ee576040517f08c379a00000000000000000000000000000000000000000000000000000000081526004016125e590615a10565b60405180910390fd5b816000806101000a81548160ff021916908360ff160217905550600190505b919050565b600060019054906101000a900460ff16612661576040517f08c379a000000000000000000000000000000000000000000000000000000000815260040161265890615aa2565b60405180910390fd5b61266a8161344e565b50565b600060019054906101000a900460ff166126bc576040517f08c379a00000000000000000000000000000000000000000000000000000000081526004016126b390615aa2565b60405180910390fd5b6126c46134a9565b565b600060019054906101000a900460ff16612715576040517f08c379a000000000000000000000000000000000000000000000000000000000815260040161270c90615aa2565b60405180910390fd5b61271d61350a565b565b600060019054906101000a900460ff1661276e576040517f08c379a000000000000000000000000000000000000000000000000000000000815260040161276590615aa2565b60405180910390fd5b565b600060019054906101000a900460ff166127bf576040517f08c379a00000000000000000000000000000000000000000000000000000000081526004016127b690615aa2565b60405180910390fd5b565b600060019054906101000a900460ff16612810576040517f08c379a000000000000000000000000000000000000000000000000000000000815260040161280790615aa2565b60405180910390fd5b565b61281a61111b565b1561285a576040517f08c379a000000000000000000000000000000000000000000000000000000000815260040161285190615b0e565b60405180910390fd5b600160c960006101000a81548160ff0219169083151502179055507f62e78cea01bee320cd4e420270b5ea74000d11b0c9f74754ebdbfc544b05a25861289e611b42565b6040516128ab9190614721565b60405180910390a1565b8173ffffffffffffffffffffffffffffffffffffffff168373ffffffffffffffffffffffffffffffffffffffff161415612924576040517f08c379a000000000000000000000000000000000000000000000000000000000815260040161291b90615ba0565b60405180910390fd5b80606660008573ffffffffffffffffffffffffffffffffffffffff1673ffffffffffffffffffffffffffffffffffffffff16815260200190815260200160002060008473ffffffffffffffffffffffffffffffffffffffff1673ffffffffffffffffffffffffffffffffffffffff16815260200190815260200160002060006101000a81548160ff0219169083151502179055508173ffffffffffffffffffffffffffffffffffffffff168373ffffffffffffffffffffffffffffffffffffffff167f17307eab39ab6107e8899845ad3d59bd9653f200f220920489ca2b5937696c3183604051612a159190613dcc565b60405180910390a3505050565b600073ffffffffffffffffffffffffffffffffffffffff168473ffffffffffffffffffffffffffffffffffffffff161415612a92576040517f08c379a0000000000000000000000000000000000000000000000000000000008152600401612a8990615552565b60405180910390fd5b6000612a9c611b42565b90506000612aa985613576565b90506000612ab685613576565b9050612ac68389898585896130bc565b60006065600088815260200190815260200160002060008a73ffffffffffffffffffffffffffffffffffffffff1673ffffffffffffffffffffffffffffffffffffffff16815260200190815260200160002054905085811015612b5e576040517f08c379a0000000000000000000000000000000000000000000000000000000008152600401612b55906155e4565b60405180910390fd5b8581036065600089815260200190815260200160002060008b73ffffffffffffffffffffffffffffffffffffffff1673ffffffffffffffffffffffffffffffffffffffff16815260200190815260200160002081905550856065600089815260200190815260200160002060008a73ffffffffffffffffffffffffffffffffffffffff1673ffffffffffffffffffffffffffffffffffffffff1681526020019081526020016000206000828254612c159190615604565b925050819055508773ffffffffffffffffffffffffffffffffffffffff168973ffffffffffffffffffffffffffffffffffffffff168573ffffffffffffffffffffffffffffffffffffffff167fc3d58168c5ae7397731d063d5bbf3d657854427343f4c083240f7aacaa2d0f628a8a604051612c92929190615bc0565b60405180910390a4612ca8848a8a86868a61311a565b612cb6848a8a8a8a8a6135f0565b505050505050505050565b600073ffffffffffffffffffffffffffffffffffffffff168373ffffffffffffffffffffffffffffffffffffffff161415612d31576040517f08c379a0000000000000000000000000000000000000000000000000000000008152600401612d28906158ec565b60405180910390fd5b6000612d3b611b42565b90506000612d4884613576565b90506000612d5584613576565b9050612d75838760008585604051806020016040528060008152506130bc565b60006065600087815260200190815260200160002060008873ffffffffffffffffffffffffffffffffffffffff1673ffffffffffffffffffffffffffffffffffffffff16815260200190815260200160002054905084811015612e0d576040517f08c379a0000000000000000000000000000000000000000000000000000000008152600401612e049061597e565b60405180910390fd5b8481036065600088815260200190815260200160002060008973ffffffffffffffffffffffffffffffffffffffff1673ffffffffffffffffffffffffffffffffffffffff16815260200190815260200160002081905550600073ffffffffffffffffffffffffffffffffffffffff168773ffffffffffffffffffffffffffffffffffffffff168573ffffffffffffffffffffffffffffffffffffffff167fc3d58168c5ae7397731d063d5bbf3d657854427343f4c083240f7aacaa2d0f628989604051612edb929190615bc0565b60405180910390a4612f018488600086866040518060200160405280600081525061311a565b50505050505050565b600073ffffffffffffffffffffffffffffffffffffffff168473ffffffffffffffffffffffffffffffffffffffff161415612f7a576040517f08c379a0000000000000000000000000000000000000000000000000000000008152600401612f719061539c565b60405180910390fd5b6000612f84611b42565b90506000612f9185613576565b90506000612f9e85613576565b9050612faf836000898585896130bc565b846065600088815260200190815260200160002060008973ffffffffffffffffffffffffffffffffffffffff1673ffffffffffffffffffffffffffffffffffffffff168152602001908152602001600020600082825461300f9190615604565b925050819055508673ffffffffffffffffffffffffffffffffffffffff16600073ffffffffffffffffffffffffffffffffffffffff168473ffffffffffffffffffffffffffffffffffffffff167fc3d58168c5ae7397731d063d5bbf3d657854427343f4c083240f7aacaa2d0f62898960405161308d929190615bc0565b60405180910390a46130a48360008985858961311a565b6130b3836000898989896135f0565b50505050505050565b6130c461111b565b15613104576040517f08c379a00000000000000000000000000000000000000000000000000000000081526004016130fb90615b0e565b60405180910390fd5b613112868686868686613800565b505050505050565b505050505050565b6131418473ffffffffffffffffffffffffffffffffffffffff1661342b565b1561332a578373ffffffffffffffffffffffffffffffffffffffff1663bc197c8187878686866040518663ffffffff167c01000000000000000000000000000000000000000000000000000000000281526004016131a3959493929190615c3e565b6020604051808303816000875af19250505080156131df57506040513d601f19601f820116820180604052508101906131dc9190615cbb565b60015b613285576131eb615d11565b806308c379a014156132485750613200615d33565b8061320b575061324a565b806040517f08c379a000000000000000000000000000000000000000000000000000000000815260040161323f919061402b565b60405180910390fd5b505b6040517f08c379a000000000000000000000000000000000000000000000000000000000815260040161327c90615e3b565b60405180910390fd5b63bc197c817c0100000000000000000000000000000000000000000000000000000000027bffffffffffffffffffffffffffffffffffffffffffffffffffffffff1916817bffffffffffffffffffffffffffffffffffffffffffffffffffffffff191614613328576040517f08c379a000000000000000000000000000000000000000000000000000000000815260040161331f90615ecd565b60405180910390fd5b505b505050505050565b6000819050919050565b6000819050919050565b61334f8161342b565b61338e576040517f08c379a000000000000000000000000000000000000000000000000000000000815260040161338590615f5f565b60405180910390fd5b806133bb7f360894a13ba1a3210667c828492db98dca3e2076cc3735a920a3ca505d382bbc600102613332565b60000160006101000a81548173ffffffffffffffffffffffffffffffffffffffff021916908373ffffffffffffffffffffffffffffffffffffffff16021790555050565b613408836139d5565b6000825111806134155750805b15613426576134248383613a24565b505b505050565b6000808273ffffffffffffffffffffffffffffffffffffffff163b119050919050565b600060019054906101000a900460ff1661349d576040517f08c379a000000000000000000000000000000000000000000000000000000000815260040161349490615aa2565b60405180910390fd5b6134a681611b4a565b50565b600060019054906101000a900460ff166134f8576040517f08c379a00000000000000000000000000000000000000000000000000000000081526004016134ef90615aa2565b60405180910390fd5b613508613503611b42565b61245c565b565b600060019054906101000a900460ff16613559576040517f08c379a000000000000000000000000000000000000000000000000000000000815260040161355090615aa2565b60405180910390fd5b600060c960006101000a81548160ff021916908315150217905550565b60606000600167ffffffffffffffff81111561359557613594613e02565b5b6040519080825280602002602001820160405280156135c35781602001602082028036833780820191505090505b50905082816000815181106135db576135da614e65565b5b60200260200101818152505080915050919050565b61360f8473ffffffffffffffffffffffffffffffffffffffff1661342b565b156137f8578373ffffffffffffffffffffffffffffffffffffffff1663f23a6e6187878686866040518663ffffffff167c0100000000000000000000000000000000000000000000000000000000028152600401613671959493929190615f7f565b6020604051808303816000875af19250505080156136ad57506040513d601f19601f820116820180604052508101906136aa9190615cbb565b60015b613753576136b9615d11565b806308c379a0141561371657506136ce615d33565b806136d95750613718565b806040517f08c379a000000000000000000000000000000000000000000000000000000000815260040161370d919061402b565b60405180910390fd5b505b6040517f08c379a000000000000000000000000000000000000000000000000000000000815260040161374a90615e3b565b60405180910390fd5b63f23a6e617c0100000000000000000000000000000000000000000000000000000000027bffffffffffffffffffffffffffffffffffffffffffffffffffffffff1916817bffffffffffffffffffffffffffffffffffffffffffffffffffffffff1916146137f6576040517f08c379a00000000000000000000000000000000000000000000000000000000081526004016137ed90615ecd565b60405180910390fd5b505b505050505050565b61380e868686868686613b08565b600073ffffffffffffffffffffffffffffffffffffffff168573ffffffffffffffffffffffffffffffffffffffff1614156138c15760005b83518110156138bf5782818151811061386257613861614e65565b5b602002602001015161012d600086848151811061388257613881614e65565b5b6020026020010151815260200190815260200160002060008282546138a79190615604565b92505081905550806138b890614f82565b9050613846565b505b600073ffffffffffffffffffffffffffffffffffffffff168473ffffffffffffffffffffffffffffffffffffffff1614156139cd5760005b83518110156139cb57600084828151811061391757613916614e65565b5b60200260200101519050600084838151811061393657613935614e65565b5b60200260200101519050600061012d60008481526020019081526020016000205490508181101561399c576040517f08c379a00000000000000000000000000000000000000000000000000000000081526004016139939061604b565b60405180910390fd5b81810361012d600085815260200190815260200160002081905550505050806139c490614f82565b90506138f9565b505b505050505050565b6139de81613346565b8073ffffffffffffffffffffffffffffffffffffffff167fbc7cd75a20ee27fd9adebab32041f755214dbc6bffa90cc0225b39da2e5c2d3b60405160405180910390a250565b6060613a2f8361342b565b613a6e576040517f08c379a0000000000000000000000000000000000000000000000000000000008152600401613a65906160dd565b60405180910390fd5b6000808473ffffffffffffffffffffffffffffffffffffffff1684604051613a969190616139565b600060405180830381855af49150503d8060008114613ad1576040519150601f19603f3d011682016040523d82523d6000602084013e613ad6565b606091505b5091509150613afe828260405180606001604052806027815260200161615160279139613b10565b9250505092915050565b505050505050565b60608315613b2057829050613b70565b600083511115613b335782518084602001fd5b816040517f08c379a0000000000000000000000000000000000000000000000000000000008152600401613b67919061402b565b60405180910390fd5b9392505050565b828054613b8390614c7d565b90600052602060002090601f016020900481019282613ba55760008555613bec565b82601f10613bbe57805160ff1916838001178555613bec565b82800160010185558215613bec579182015b82811115613beb578251825591602001919060010190613bd0565b5b509050613bf99190613bfd565b5090565b5b80821115613c16576000816000905550600101613bfe565b5090565b6000604051905090565b600080fd5b600080fd5b600073ffffffffffffffffffffffffffffffffffffffff82169050919050565b6000613c5982613c2e565b9050919050565b613c6981613c4e565b8114613c7457600080fd5b50565b600081359050613c8681613c60565b92915050565b6000819050919050565b613c9f81613c8c565b8114613caa57600080fd5b50565b600081359050613cbc81613c96565b92915050565b60008060408385031215613cd957613cd8613c24565b5b6000613ce785828601613c77565b9250506020613cf885828601613cad565b9150509250929050565b613d0b81613c8c565b82525050565b6000602082019050613d266000830184613d02565b92915050565b60007fffffffff0000000000000000000000000000000000000000000000000000000082169050919050565b613d6181613d2c565b8114613d6c57600080fd5b50565b600081359050613d7e81613d58565b92915050565b600060208284031215613d9a57613d99613c24565b5b6000613da884828501613d6f565b91505092915050565b60008115159050919050565b613dc681613db1565b82525050565b6000602082019050613de16000830184613dbd565b92915050565b600080fd5b600080fd5b6000601f19601f8301169050919050565b7f4e487b7100000000000000000000000000000000000000000000000000000000600052604160045260246000fd5b613e3a82613df1565b810181811067ffffffffffffffff82111715613e5957613e58613e02565b5b80604052505050565b6000613e6c613c1a565b9050613e788282613e31565b919050565b600067ffffffffffffffff821115613e9857613e97613e02565b5b613ea182613df1565b9050602081019050919050565b82818337600083830152505050565b6000613ed0613ecb84613e7d565b613e62565b905082815260208101848484011115613eec57613eeb613dec565b5b613ef7848285613eae565b509392505050565b600082601f830112613f1457613f13613de7565b5b8135613f24848260208601613ebd565b91505092915050565b600060208284031215613f4357613f42613c24565b5b600082013567ffffffffffffffff811115613f6157613f60613c29565b5b613f6d84828501613eff565b91505092915050565b600060208284031215613f8c57613f8b613c24565b5b6000613f9a84828501613cad565b91505092915050565b600081519050919050565b600082825260208201905092915050565b60005b83811015613fdd578082015181840152602081019050613fc2565b83811115613fec576000848401525b50505050565b6000613ffd82613fa3565b6140078185613fae565b9350614017818560208601613fbf565b61402081613df1565b840191505092915050565b600060208201905081810360008301526140458184613ff2565b905092915050565b600067ffffffffffffffff82111561406857614067613e02565b5b602082029050602081019050919050565b600080fd5b600061409161408c8461404d565b613e62565b905080838252602082019050602084028301858111156140b4576140b3614079565b5b835b818110156140dd57806140c98882613cad565b8452602084019350506020810190506140b6565b5050509392505050565b600082601f8301126140fc576140fb613de7565b5b813561410c84826020860161407e565b91505092915050565b600067ffffffffffffffff8211156141305761412f613e02565b5b61413982613df1565b9050602081019050919050565b600061415961415484614115565b613e62565b90508281526020810184848401111561417557614174613dec565b5b614180848285613eae565b509392505050565b600082601f83011261419d5761419c613de7565b5b81356141ad848260208601614146565b91505092915050565b600080600080600060a086880312156141d2576141d1613c24565b5b60006141e088828901613c77565b95505060206141f188828901613c77565b945050604086013567ffffffffffffffff81111561421257614211613c29565b5b61421e888289016140e7565b935050606086013567ffffffffffffffff81111561423f5761423e613c29565b5b61424b888289016140e7565b925050608086013567ffffffffffffffff81111561426c5761426b613c29565b5b61427888828901614188565b9150509295509295909350565b60006020828403121561429b5761429a613c24565b5b60006142a984828501613c77565b91505092915050565b600067ffffffffffffffff8211156142cd576142cc613e02565b5b602082029050602081019050919050565b60006142f16142ec846142b2565b613e62565b9050808382526020820190506020840283018581111561431457614313614079565b5b835b8181101561435b57803567ffffffffffffffff81111561433957614338613de7565b5b8086016143468982613eff565b85526020850194505050602081019050614316565b5050509392505050565b600082601f83011261437a57614379613de7565b5b813561438a8482602086016142de565b91505092915050565b6000602082840312156143a9576143a8613c24565b5b600082013567ffffffffffffffff8111156143c7576143c6613c29565b5b6143d384828501614365565b91505092915050565b600067ffffffffffffffff8211156143f7576143f6613e02565b5b602082029050602081019050919050565b600061441b614416846143dc565b613e62565b9050808382526020820190506020840283018581111561443e5761443d614079565b5b835b8181101561446757806144538882613c77565b845260208401935050602081019050614440565b5050509392505050565b600082601f83011261448657614485613de7565b5b8135614496848260208601614408565b91505092915050565b600080604083850312156144b6576144b5613c24565b5b600083013567ffffffffffffffff8111156144d4576144d3613c29565b5b6144e085828601614471565b925050602083013567ffffffffffffffff81111561450157614500613c29565b5b61450d858286016140e7565b9150509250929050565b600081519050919050565b600082825260208201905092915050565b6000819050602082019050919050565b61454c81613c8c565b82525050565b600061455e8383614543565b60208301905092915050565b6000602082019050919050565b600061458282614517565b61458c8185614522565b935061459783614533565b8060005b838110156145c85781516145af8882614552565b97506145ba8361456a565b92505060018101905061459b565b5085935050505092915050565b600060208201905081810360008301526145ef8184614577565b905092915050565b6000806040838503121561460e5761460d613c24565b5b600061461c85828601613c77565b925050602083013567ffffffffffffffff81111561463d5761463c613c29565b5b61464985828601614188565b9150509250929050565b6000819050919050565b61466681614653565b82525050565b6000602082019050614681600083018461465d565b92915050565b6000806000606084860312156146a05761469f613c24565b5b60006146ae86828701613c77565b935050602084013567ffffffffffffffff8111156146cf576146ce613c29565b5b6146db868287016140e7565b925050604084013567ffffffffffffffff8111156146fc576146fb613c29565b5b614708868287016140e7565b9150509250925092565b61471b81613c4e565b82525050565b60006020820190506147366000830184614712565b92915050565b600080fd5b60008083601f84011261475757614756613de7565b5b8235905067ffffffffffffffff8111156147745761477361473c565b5b6020830191508360018202830111156147905761478f614079565b5b9250929050565b6000806000604084860312156147b0576147af613c24565b5b600084013567ffffffffffffffff8111156147ce576147cd613c29565b5b6147da86828701614741565b935093505060206147ed86828701613c77565b9150509250925092565b61480081613db1565b811461480b57600080fd5b50565b60008135905061481d816147f7565b92915050565b6000806040838503121561483a57614839613c24565b5b600061484885828601613c77565b92505060206148598582860161480e565b9150509250929050565b600081519050919050565b600082825260208201905092915050565b6000819050602082019050919050565b600082825260208201905092915050565b60006148ab82613fa3565b6148b5818561488f565b93506148c5818560208601613fbf565b6148ce81613df1565b840191505092915050565b60006148e583836148a0565b905092915050565b6000602082019050919050565b600061490582614863565b61490f818561486e565b9350836020820285016149218561487f565b8060005b8581101561495d578484038952815161493e85826148d9565b9450614949836148ed565b925060208a01995050600181019050614925565b50829750879550505050505092915050565b6000602082019050818103600083015261498981846148fa565b905092915050565b600080604083850312156149a8576149a7613c24565b5b60006149b685828601613c77565b92505060206149c785828601613c77565b9150509250929050565b600080600080600060a086880312156149ed576149ec613c24565b5b60006149fb88828901613c77565b9550506020614a0c88828901613c77565b9450506040614a1d88828901613cad565b9350506060614a2e88828901613cad565b925050608086013567ffffffffffffffff811115614a4f57614a4e613c29565b5b614a5b88828901614188565b9150509295509295909350565b600080600060608486031215614a8157614a80613c24565b5b6000614a8f86828701613c77565b9350506020614aa086828701613cad565b9250506040614ab186828701613cad565b9150509250925092565b600080600080600060608688031215614ad757614ad6613c24565b5b600086013567ffffffffffffffff811115614af557614af4613c29565b5b614b0188828901614741565b95509550506020614b1488828901613c77565b935050604086013567ffffffffffffffff811115614b3557614b34613c29565b5b614b4188828901614741565b92509250509295509295909350565b7f455243313135353a2062616c616e636520717565727920666f7220746865207a60008201527f65726f2061646472657373000000000000000000000000000000000000000000602082015250565b6000614bac602b83613fae565b9150614bb782614b50565b604082019050919050565b60006020820190508181036000830152614bdb81614b9f565b9050919050565b7f4f776e61626c653a2063616c6c6572206973206e6f7420746865206f776e6572600082015250565b6000614c18602083613fae565b9150614c2382614be2565b602082019050919050565b60006020820190508181036000830152614c4781614c0b565b9050919050565b7f4e487b7100000000000000000000000000000000000000000000000000000000600052602260045260246000fd5b60006002820490506001821680614c9557607f821691505b60208210811415614ca957614ca8614c4e565b5b50919050565b7f455243313135353a207472616e736665722063616c6c6572206973206e6f742060008201527f6f776e6572206e6f7220617070726f7665640000000000000000000000000000602082015250565b6000614d0b603283613fae565b9150614d1682614caf565b604082019050919050565b60006020820190508181036000830152614d3a81614cfe565b9050919050565b7f46756e6374696f6e206d7573742062652063616c6c6564207468726f7567682060008201527f64656c656761746563616c6c0000000000000000000000000000000000000000602082015250565b6000614d9d602c83613fae565b9150614da882614d41565b604082019050919050565b60006020820190508181036000830152614dcc81614d90565b9050919050565b7f46756e6374696f6e206d7573742062652063616c6c6564207468726f7567682060008201527f6163746976652070726f78790000000000000000000000000000000000000000602082015250565b6000614e2f602c83613fae565b9150614e3a82614dd3565b604082019050919050565b60006020820190508181036000830152614e5e81614e22565b9050919050565b7f4e487b7100000000000000000000000000000000000000000000000000000000600052603260045260246000fd5b600081905092915050565b6000614eaa82613fa3565b614eb48185614e94565b9350614ec4818560208601613fbf565b80840191505092915050565b6000614edc8284614e9f565b915081905092915050565b7f4576656e7420697320616c726561647920657869737473000000000000000000600082015250565b6000614f1d601783613fae565b9150614f2882614ee7565b602082019050919050565b60006020820190508181036000830152614f4c81614f10565b9050919050565b7f4e487b7100000000000000000000000000000000000000000000000000000000600052601160045260246000fd5b6000614f8d82613c8c565b91507fffffffffffffffffffffffffffffffffffffffffffffffffffffffffffffffff821415614fc057614fbf614f53565b5b600182019050919050565b7f455243313135353a206163636f756e747320616e6420696473206c656e67746860008201527f206d69736d617463680000000000000000000000000000000000000000000000602082015250565b6000615027602983613fae565b915061503282614fcb565b604082019050919050565b600060208201905081810360008301526150568161501a565b9050919050565b7f555550535570677261646561626c653a206d757374206e6f742062652063616c60008201527f6c6564207468726f7567682064656c656761746563616c6c0000000000000000602082015250565b60006150b9603883613fae565b91506150c48261505d565b604082019050919050565b600060208201905081810360008301526150e8816150ac565b9050919050565b7f455243313135353a2063616c6c6572206973206e6f74206f776e6572206e6f7260008201527f20617070726f7665640000000000000000000000000000000000000000000000602082015250565b600061514b602983613fae565b9150615156826150ef565b604082019050919050565b6000602082019050818103600083015261517a8161513e565b9050919050565b6000819050919050565b600060ff82169050919050565b6000819050919050565b60006151bd6151b86151b384615181565b615198565b61518b565b9050919050565b6151cd816151a2565b82525050565b60006020820190506151e860008301846151c4565b92915050565b7f6164647265737320697320696e76616c69640000000000000000000000000000600082015250565b6000615224601283613fae565b915061522f826151ee565b602082019050919050565b6000602082019050818103600083015261525381615217565b9050919050565b60006152668385614e94565b9350615273838584613eae565b82840190509392505050565b600061528c82848661525a565b91508190509392505050565b7f4f776e61626c653a206e6577206f776e657220697320746865207a65726f206160008201527f6464726573730000000000000000000000000000000000000000000000000000602082015250565b60006152f4602683613fae565b91506152ff82615298565b604082019050919050565b60006020820190508181036000830152615323816152e7565b9050919050565b7f455243313135353a206d696e7420746f20746865207a65726f2061646472657360008201527f7300000000000000000000000000000000000000000000000000000000000000602082015250565b6000615386602183613fae565b91506153918261532a565b604082019050919050565b600060208201905081810360008301526153b581615379565b9050919050565b7f496e76616c6964206576656e74206f72206576656e74206e6f7420657869737460008201527f7320746f206d696e742062616467657300000000000000000000000000000000602082015250565b6000615418603083613fae565b9150615423826153bc565b604082019050919050565b600060208201905081810360008301526154478161540b565b9050919050565b7f455243313135353a2069647320616e6420616d6f756e7473206c656e6774682060008201527f6d69736d61746368000000000000000000000000000000000000000000000000602082015250565b60006154aa602883613fae565b91506154b58261544e565b604082019050919050565b600060208201905081810360008301526154d98161549d565b9050919050565b7f455243313135353a207472616e7366657220746f20746865207a65726f20616460008201527f6472657373000000000000000000000000000000000000000000000000000000602082015250565b600061553c602583613fae565b9150615547826154e0565b604082019050919050565b6000602082019050818103600083015261556b8161552f565b9050919050565b7f455243313135353a20696e73756666696369656e742062616c616e636520666f60008201527f72207472616e7366657200000000000000000000000000000000000000000000602082015250565b60006155ce602a83613fae565b91506155d982615572565b604082019050919050565b600060208201905081810360008301526155fd816155c1565b9050919050565b600061560f82613c8c565b915061561a83613c8c565b9250827fffffffffffffffffffffffffffffffffffffffffffffffffffffffffffffffff0382111561564f5761564e614f53565b5b828201905092915050565b600060408201905081810360008301526156748185614577565b905081810360208301526156888184614577565b90509392505050565b61569a81614653565b81146156a557600080fd5b50565b6000815190506156b781615691565b92915050565b6000602082840312156156d3576156d2613c24565b5b60006156e1848285016156a8565b91505092915050565b7f45524331393637557067726164653a206e657720696d706c656d656e7461746960008201527f6f6e206973206e6f742055555053000000000000000000000000000000000000602082015250565b6000615746602e83613fae565b9150615751826156ea565b604082019050919050565b6000602082019050818103600083015261577581615739565b9050919050565b7f45524331393637557067726164653a20756e737570706f727465642070726f7860008201527f6961626c65555549440000000000000000000000000000000000000000000000602082015250565b60006157d8602983613fae565b91506157e38261577c565b604082019050919050565b60006020820190508181036000830152615807816157cb565b9050919050565b7f5061757361626c653a206e6f7420706175736564000000000000000000000000600082015250565b6000615844601483613fae565b915061584f8261580e565b602082019050919050565b6000602082019050818103600083015261587381615837565b9050919050565b7f455243313135353a206275726e2066726f6d20746865207a65726f206164647260008201527f6573730000000000000000000000000000000000000000000000000000000000602082015250565b60006158d6602383613fae565b91506158e18261587a565b604082019050919050565b60006020820190508181036000830152615905816158c9565b9050919050565b7f455243313135353a206275726e20616d6f756e7420657863656564732062616c60008201527f616e636500000000000000000000000000000000000000000000000000000000602082015250565b6000615968602483613fae565b91506159738261590c565b604082019050919050565b600060208201905081810360008301526159978161595b565b9050919050565b7f496e697469616c697a61626c653a20636f6e747261637420697320616c72656160008201527f647920696e697469616c697a6564000000000000000000000000000000000000602082015250565b60006159fa602e83613fae565b9150615a058261599e565b604082019050919050565b60006020820190508181036000830152615a29816159ed565b9050919050565b7f496e697469616c697a61626c653a20636f6e7472616374206973206e6f74206960008201527f6e697469616c697a696e67000000000000000000000000000000000000000000602082015250565b6000615a8c602b83613fae565b9150615a9782615a30565b604082019050919050565b60006020820190508181036000830152615abb81615a7f565b9050919050565b7f5061757361626c653a2070617573656400000000000000000000000000000000600082015250565b6000615af8601083613fae565b9150615b0382615ac2565b602082019050919050565b60006020820190508181036000830152615b2781615aeb565b9050919050565b7f455243313135353a2073657474696e6720617070726f76616c2073746174757360008201527f20666f722073656c660000000000000000000000000000000000000000000000602082015250565b6000615b8a602983613fae565b9150615b9582615b2e565b604082019050919050565b60006020820190508181036000830152615bb981615b7d565b9050919050565b6000604082019050615bd56000830185613d02565b615be26020830184613d02565b9392505050565b600081519050919050565b600082825260208201905092915050565b6000615c1082615be9565b615c1a8185615bf4565b9350615c2a818560208601613fbf565b615c3381613df1565b840191505092915050565b600060a082019050615c536000830188614712565b615c606020830187614712565b8181036040830152615c728186614577565b90508181036060830152615c868185614577565b90508181036080830152615c9a8184615c05565b90509695505050505050565b600081519050615cb581613d58565b92915050565b600060208284031215615cd157615cd0613c24565b5b6000615cdf84828501615ca6565b91505092915050565b60007c010000000000000000000000000000000000000000000000000000000082049050919050565b600060033d1115615d305760046000803e615d2d600051615ce8565b90505b90565b600060443d1015615d4357615dc6565b615d4b613c1a565b60043d036004823e80513d602482011167ffffffffffffffff82111715615d73575050615dc6565b808201805167ffffffffffffffff811115615d915750505050615dc6565b80602083010160043d038501811115615dae575050505050615dc6565b615dbd82602001850186613e31565b82955050505050505b90565b7f455243313135353a207472616e7366657220746f206e6f6e204552433131353560008201527f526563656976657220696d706c656d656e746572000000000000000000000000602082015250565b6000615e25603483613fae565b9150615e3082615dc9565b604082019050919050565b60006020820190508181036000830152615e5481615e18565b9050919050565b7f455243313135353a204552433131353552656365697665722072656a6563746560008201527f6420746f6b656e73000000000000000000000000000000000000000000000000602082015250565b6000615eb7602883613fae565b9150615ec282615e5b565b604082019050919050565b60006020820190508181036000830152615ee681615eaa565b9050919050565b7f455243313936373a206e657720696d706c656d656e746174696f6e206973206e60008201527f6f74206120636f6e747261637400000000000000000000000000000000000000602082015250565b6000615f49602d83613fae565b9150615f5482615eed565b604082019050919050565b60006020820190508181036000830152615f7881615f3c565b9050919050565b600060a082019050615f946000830188614712565b615fa16020830187614712565b615fae6040830186613d02565b615fbb6060830185613d02565b8181036080830152615fcd8184615c05565b90509695505050505050565b7f455243313135353a206275726e20616d6f756e74206578636565647320746f7460008201527f616c537570706c79000000000000000000000000000000000000000000000000602082015250565b6000616035602883613fae565b915061604082615fd9565b604082019050919050565b6000602082019050818103600083015261606481616028565b9050919050565b7f416464726573733a2064656c65676174652063616c6c20746f206e6f6e2d636f60008201527f6e74726163740000000000000000000000000000000000000000000000000000602082015250565b60006160c7602683613fae565b91506160d28261606b565b604082019050919050565b600060208201905081810360008301526160f6816160ba565b9050919050565b600081905092915050565b600061611382615be9565b61611d81856160fd565b935061612d818560208601613fbf565b80840191505092915050565b60006161458284616108565b91508190509291505056fe416464726573733a206c6f772d6c6576656c2064656c65676174652063616c6c206661696c6564a26469706673582212204b9b1e6b8dbde4be675ed636e1218efb8a36d95543c2a7447bafcc3e3736e5ca64736f6c634300080b0033",
  "immutableReferences": {
    "1065": [
      {
        "length": 32,
        "start": 2598
      },
      {
        "length": 32,
        "start": 2741
      },
      {
        "length": 32,
        "start": 3859
      },
      {
        "length": 32,
        "start": 4002
      },
      {
        "length": 32,
        "start": 4198
      }
    ]
  },
  "source": "// SPDX-License-Identifier: MIT\npragma solidity >=0.4.22 <0.9.0;\n\nimport \"../node_modules/@openzeppelin/contracts-upgradeable/token/ERC1155/ERC1155Upgradeable.sol\";\nimport \"../node_modules/@openzeppelin/contracts-upgradeable/access/OwnableUpgradeable.sol\";\nimport \"../node_modules/@openzeppelin/contracts-upgradeable/security/PausableUpgradeable.sol\";\nimport \"../node_modules/@openzeppelin/contracts-upgradeable/token/ERC1155/extensions/ERC1155BurnableUpgradeable.sol\";\nimport \"../node_modules/@openzeppelin/contracts-upgradeable/token/ERC1155/extensions/ERC1155SupplyUpgradeable.sol\";\nimport \"../node_modules/@openzeppelin/contracts-upgradeable/proxy/utils/Initializable.sol\";\nimport \"../node_modules/@openzeppelin/contracts-upgradeable/proxy/utils/UUPSUpgradeable.sol\";\n\ncontract TestContract is Initializable, ERC1155Upgradeable, OwnableUpgradeable, PausableUpgradeable, ERC1155BurnableUpgradeable, ERC1155SupplyUpgradeable, UUPSUpgradeable\n{\n    function initialize() public initializer {\n        __ERC1155_init(\"\");\n        __Ownable_init();\n        __Pausable_init();\n        __ERC1155Burnable_init();\n        __ERC1155Supply_init();\n        __UUPSUpgradeable_init();\n    }\n\n    mapping(string => uint256) eventBadgeIdStore;\n    uint256 private badgeIdCounter;\n    string[] public eventStore;\n\n    function setURI(string memory newuri) public onlyOwner {\n        _setURI(newuri);\n    }\n\n    function pause() public onlyOwner {\n        _pause();\n    }\n\n    function unpause() public onlyOwner {\n        _unpause();\n    }\n\n    function mintEventBadgeAndTransfer(\n        string calldata eventName,\n        address attendee,\n        string calldata eventData\n    ) external onlyOwner {\n        require(attendee != address(0), \"ERC1155: mint to the zero address\");\n\n        require(\n            eventBadgeIdStore[eventName] > 0,\n            \"Invalid event or event not exists to mint badges\"\n        );\n\n        uint256 eventBadgeId = eventBadgeIdStore[eventName];\n\n        bytes memory tokenData = (bytes(eventData));\n\n        _mint(attendee, eventBadgeId, 1, tokenData);\n    }\n\n    function addNewEvents(string[] memory events) external onlyOwner {\n        for (uint256 i = 0; i < events.length; i++) {\n            require(\n                eventBadgeIdStore[events[i]] == 0,\n                \"Event is already exists\"\n            );\n            eventBadgeIdStore[events[i]] = ++badgeIdCounter;\n            eventStore.push(events[i]);\n        }\n    }\n\n    function getAllEvents() external view returns (string[] memory) {\n        return eventStore;\n    }\n\n    function balanceOfEventBadgeToken(\n        string calldata eventName,\n        address account\n    ) external view returns (uint256) {\n        require(account != address(0), \"address is invalid\");\n        uint256 badgeId = eventBadgeIdStore[eventName];\n        return balanceOf(account, badgeId);\n    }\n\n    function _beforeTokenTransfer(\n        address operator,\n        address from,\n        address to,\n        uint256[] memory ids,\n        uint256[] memory amounts,\n        bytes memory data\n    )\n        internal\n        override(ERC1155Upgradeable, ERC1155SupplyUpgradeable)\n        whenNotPaused\n    {\n        super._beforeTokenTransfer(operator, from, to, ids, amounts, data);\n    }\n\n    function _authorizeUpgrade(address newImplementation)\n        internal\n        override\n        onlyOwner\n    {}\n}",
  "sourcePath": "/Users/rmerzak/Desktop/Truffle_test/contracts/TestContract.sol",
  "compiler": {
    "name": "solc",
    "version": "0.8.11+commit.d7f03943.Emscripten.clang"
  },
  "schemaVersion": "3.4.7",
  "updatedAt": "2022-06-24T00:43:56.716Z",
  "networkType": "ethereum",
  "devdoc": {
    "kind": "dev",
    "methods": {
      "balanceOf(address,uint256)": {
        "details": "See {IERC1155-balanceOf}. Requirements: - `account` cannot be the zero address."
      },
      "balanceOfBatch(address[],uint256[])": {
        "details": "See {IERC1155-balanceOfBatch}. Requirements: - `accounts` and `ids` must have the same length."
      },
      "exists(uint256)": {
        "details": "Indicates whether any token exist with a given id, or not."
      },
      "isApprovedForAll(address,address)": {
        "details": "See {IERC1155-isApprovedForAll}."
      },
      "owner()": {
        "details": "Returns the address of the current owner."
      },
      "paused()": {
        "details": "Returns true if the contract is paused, and false otherwise."
      },
      "proxiableUUID()": {
        "details": "Implementation of the ERC1822 {proxiableUUID} function. This returns the storage slot used by the implementation. It is used to validate that the this implementation remains valid after an upgrade. IMPORTANT: A proxy pointing at a proxiable contract should not be considered proxiable itself, because this risks bricking a proxy that upgrades to it, by delegating to itself until out of gas. Thus it is critical that this function revert if invoked through a proxy. This is guaranteed by the `notDelegated` modifier."
      },
      "renounceOwnership()": {
        "details": "Leaves the contract without owner. It will not be possible to call `onlyOwner` functions anymore. Can only be called by the current owner. NOTE: Renouncing ownership will leave the contract without an owner, thereby removing any functionality that is only available to the owner."
      },
      "safeBatchTransferFrom(address,address,uint256[],uint256[],bytes)": {
        "details": "See {IERC1155-safeBatchTransferFrom}."
      },
      "safeTransferFrom(address,address,uint256,uint256,bytes)": {
        "details": "See {IERC1155-safeTransferFrom}."
      },
      "setApprovalForAll(address,bool)": {
        "details": "See {IERC1155-setApprovalForAll}."
      },
      "supportsInterface(bytes4)": {
        "details": "See {IERC165-supportsInterface}."
      },
      "totalSupply(uint256)": {
        "details": "Total amount of tokens in with a given id."
      },
      "transferOwnership(address)": {
        "details": "Transfers ownership of the contract to a new account (`newOwner`). Can only be called by the current owner."
      },
      "upgradeTo(address)": {
        "details": "Upgrade the implementation of the proxy to `newImplementation`. Calls {_authorizeUpgrade}. Emits an {Upgraded} event."
      },
      "upgradeToAndCall(address,bytes)": {
        "details": "Upgrade the implementation of the proxy to `newImplementation`, and subsequently execute the function call encoded in `data`. Calls {_authorizeUpgrade}. Emits an {Upgraded} event."
      },
      "uri(uint256)": {
        "details": "See {IERC1155MetadataURI-uri}. This implementation returns the same URI for *all* token types. It relies on the token type ID substitution mechanism https://eips.ethereum.org/EIPS/eip-1155#metadata[defined in the EIP]. Clients calling this function must replace the `\\{id\\}` substring with the actual token type ID."
      }
    },
    "version": 1
  },
  "userdoc": {
    "kind": "user",
    "methods": {},
    "version": 1
  }
}